{
  "_format": "hh-sol-artifact-1",
  "contractName": "Coinspace",
  "sourceName": "contracts/Coinspace.sol",
  "abi": [
    {
      "anonymous": false,
      "inputs": [
        {
          "indexed": false,
          "internalType": "string",
          "name": "name",
          "type": "string"
        },
        {
          "indexed": false,
          "internalType": "string",
          "name": "symbol",
          "type": "string"
        },
        {
          "indexed": false,
          "internalType": "address",
          "name": "submitter",
          "type": "address"
        }
      ],
      "name": "CoinSubmitted",
      "type": "event"
    },
    {
      "anonymous": false,
      "inputs": [
        {
          "indexed": false,
          "internalType": "address",
          "name": "from",
          "type": "address"
        },
        {
          "indexed": false,
          "internalType": "address",
          "name": "to",
          "type": "address"
        },
        {
          "indexed": false,
          "internalType": "uint256",
          "name": "amount",
          "type": "uint256"
        },
        {
          "indexed": false,
          "internalType": "string",
          "name": "forCoin",
          "type": "string"
        }
      ],
      "name": "TipSent",
      "type": "event"
    },
    {
      "inputs": [
        {
          "internalType": "uint256",
          "name": "",
          "type": "uint256"
        }
      ],
      "name": "coins",
      "outputs": [
        {
          "internalType": "string",
          "name": "name",
          "type": "string"
        },
        {
          "internalType": "string",
          "name": "symbol",
          "type": "string"
        },
        {
          "internalType": "address",
          "name": "submitter",
          "type": "address"
        }
      ],
      "stateMutability": "view",
      "type": "function"
    },
    {
      "inputs": [
        {
          "internalType": "address",
          "name": "",
          "type": "address"
        },
        {
          "internalType": "uint256",
          "name": "",
          "type": "uint256"
        }
      ],
      "name": "coinsBySubmitter",
      "outputs": [
        {
          "internalType": "string",
          "name": "name",
          "type": "string"
        },
        {
          "internalType": "string",
          "name": "symbol",
          "type": "string"
        },
        {
          "internalType": "address",
          "name": "submitter",
          "type": "address"
        }
      ],
      "stateMutability": "view",
      "type": "function"
    },
    {
      "inputs": [],
      "name": "getCoins",
      "outputs": [
        {
          "components": [
            {
              "internalType": "string",
              "name": "name",
              "type": "string"
            },
            {
              "internalType": "string",
              "name": "symbol",
              "type": "string"
            },
            {
              "internalType": "address",
              "name": "submitter",
              "type": "address"
            }
          ],
          "internalType": "struct Coinspace.Coin[]",
          "name": "",
          "type": "tuple[]"
        }
      ],
      "stateMutability": "view",
      "type": "function"
    },
    {
      "inputs": [
        {
          "internalType": "address",
          "name": "_addr",
          "type": "address"
        }
      ],
      "name": "getCoinsByAddress",
      "outputs": [
        {
          "components": [
            {
              "internalType": "string",
              "name": "name",
              "type": "string"
            },
            {
              "internalType": "string",
              "name": "symbol",
              "type": "string"
            },
            {
              "internalType": "address",
              "name": "submitter",
              "type": "address"
            }
          ],
          "internalType": "struct Coinspace.Coin[]",
          "name": "",
          "type": "tuple[]"
        }
      ],
      "stateMutability": "view",
      "type": "function"
    },
    {
      "inputs": [
        {
          "internalType": "string",
          "name": "_name",
          "type": "string"
        },
        {
          "internalType": "string",
          "name": "_symbol",
          "type": "string"
        }
      ],
      "name": "submit",
      "outputs": [],
      "stateMutability": "nonpayable",
      "type": "function"
    },
    {
      "inputs": [
        {
          "internalType": "uint256",
          "name": "_index",
          "type": "uint256"
        }
      ],
      "name": "tip",
      "outputs": [],
      "stateMutability": "payable",
      "type": "function"
    }
  ],
  "bytecode": "0x608060405234801561001057600080fd5b50611460806100206000396000f3fe6080604052600436106100555760003560e01c806313c390ef1461005a5780632f415c83146100855780634ecd4bc1146100c4578063a2387ea314610101578063c66106571461012a578063e8b69bc314610169575b600080fd5b34801561006657600080fd5b5061006f610185565b60405161007c9190611177565b60405180910390f35b34801561009157600080fd5b506100ac60048036038101906100a79190610e73565b61035e565b6040516100bb939291906111e2565b60405180910390f35b3480156100d057600080fd5b506100eb60048036038101906100e69190610e4a565b6104d5565b6040516100f89190611177565b60405180910390f35b34801561010d57600080fd5b5061012860048036038101906101239190610eaf565b6106ed565b005b34801561013657600080fd5b50610151600480360381019061014c9190610f24565b61098b565b604051610160939291906111e2565b60405180910390f35b610183600480360381019061017e9190610f24565b610af5565b005b60606000805480602002602001604051908101604052809291908181526020016000905b8282101561035557838290600052602060002090600302016040518060600160405290816000820180546101dc90611361565b80601f016020809104026020016040519081016040528092919081815260200182805461020890611361565b80156102555780601f1061022a57610100808354040283529160200191610255565b820191906000526020600020905b81548152906001019060200180831161023857829003601f168201915b5050505050815260200160018201805461026e90611361565b80601f016020809104026020016040519081016040528092919081815260200182805461029a90611361565b80156102e75780601f106102bc576101008083540402835291602001916102e7565b820191906000526020600020905b8154815290600101906020018083116102ca57829003601f168201915b505050505081526020016002820160009054906101000a900473ffffffffffffffffffffffffffffffffffffffff1673ffffffffffffffffffffffffffffffffffffffff1673ffffffffffffffffffffffffffffffffffffffff1681525050815260200190600101906101a9565b50505050905090565b6001602052816000526040600020818154811061037a57600080fd5b90600052602060002090600302016000915091505080600001805461039e90611361565b80601f01602080910402602001604051908101604052809291908181526020018280546103ca90611361565b80156104175780601f106103ec57610100808354040283529160200191610417565b820191906000526020600020905b8154815290600101906020018083116103fa57829003601f168201915b50505050509080600101805461042c90611361565b80601f016020809104026020016040519081016040528092919081815260200182805461045890611361565b80156104a55780601f1061047a576101008083540402835291602001916104a5565b820191906000526020600020905b81548152906001019060200180831161048857829003601f168201915b5050505050908060020160009054906101000a900473ffffffffffffffffffffffffffffffffffffffff16905083565b6060600160008373ffffffffffffffffffffffffffffffffffffffff1673ffffffffffffffffffffffffffffffffffffffff168152602001908152602001600020805480602002602001604051908101604052809291908181526020016000905b828210156106e2578382906000526020600020906003020160405180606001604052908160008201805461056990611361565b80601f016020809104026020016040519081016040528092919081815260200182805461059590611361565b80156105e25780601f106105b7576101008083540402835291602001916105e2565b820191906000526020600020905b8154815290600101906020018083116105c557829003601f168201915b505050505081526020016001820180546105fb90611361565b80601f016020809104026020016040519081016040528092919081815260200182805461062790611361565b80156106745780601f1061064957610100808354040283529160200191610674565b820191906000526020600020905b81548152906001019060200180831161065757829003601f168201915b505050505081526020016002820160009054906101000a900473ffffffffffffffffffffffffffffffffffffffff1673ffffffffffffffffffffffffffffffffffffffff1673ffffffffffffffffffffffffffffffffffffffff168152505081526020019060010190610536565b505050509050919050565b6000604051806060016040528086868080601f016020809104026020016040519081016040528093929190818152602001838380828437600081840152601f19601f82011690508083019250505050505050815260200184848080601f016020809104026020016040519081016040528093929190818152602001838380828437600081840152601f19601f8201169050808301925050505050505081526020013373ffffffffffffffffffffffffffffffffffffffff168152509050600081908060018154018082558091505060019003906000526020600020906003020160009091909190915060008201518160000190805190602001906107f2929190610d33565b50602082015181600101908051906020019061080f929190610d33565b5060408201518160020160006101000a81548173ffffffffffffffffffffffffffffffffffffffff021916908373ffffffffffffffffffffffffffffffffffffffff1602179055505050600160003373ffffffffffffffffffffffffffffffffffffffff1673ffffffffffffffffffffffffffffffffffffffff16815260200190815260200160002081908060018154018082558091505060019003906000526020600020906003020160009091909190915060008201518160000190805190602001906108de929190610d33565b5060208201518160010190805190602001906108fb929190610d33565b5060408201518160020160006101000a81548173ffffffffffffffffffffffffffffffffffffffff021916908373ffffffffffffffffffffffffffffffffffffffff16021790555050507f0a975948e49882287fb2714bac2a47e4b732329389cdf7e2a60fbffdaf3cbdf2858585853360405161097c959493929190611199565b60405180910390a15050505050565b6000818154811061099b57600080fd5b90600052602060002090600302016000915090508060000180546109be90611361565b80601f01602080910402602001604051908101604052809291908181526020018280546109ea90611361565b8015610a375780601f10610a0c57610100808354040283529160200191610a37565b820191906000526020600020905b815481529060010190602001808311610a1a57829003601f168201915b505050505090806001018054610a4c90611361565b80601f0160208091040260200160405190810160405280929190818152602001828054610a7890611361565b8015610ac55780601f10610a9a57610100808354040283529160200191610ac5565b820191906000526020600020905b815481529060010190602001808311610aa857829003601f168201915b5050505050908060020160009054906101000a900473ffffffffffffffffffffffffffffffffffffffff16905083565b6000808281548110610b30577f4e487b7100000000000000000000000000000000000000000000000000000000600052603260045260246000fd5b906000526020600020906003020160020160009054906101000a900473ffffffffffffffffffffffffffffffffffffffff1690506000808381548110610b9f577f4e487b7100000000000000000000000000000000000000000000000000000000600052603260045260246000fd5b90600052602060002090600302016000018054610bbb90611361565b80601f0160208091040260200160405190810160405280929190818152602001828054610be790611361565b8015610c345780601f10610c0957610100808354040283529160200191610c34565b820191906000526020600020905b815481529060010190602001808311610c1757829003601f168201915b505050505090508173ffffffffffffffffffffffffffffffffffffffff163373ffffffffffffffffffffffffffffffffffffffff161415610caa576040517f08c379a0000000000000000000000000000000000000000000000000000000008152600401610ca190611227565b60405180910390fd5b8173ffffffffffffffffffffffffffffffffffffffff166108fc349081150290604051600060405180830381858888f19350505050158015610cf0573d6000803e3d6000fd5b507f47699a4a144a6ecb85d9f1d3f809cbb382de4ad771c46d73422dd419cebec46533833484604051610d26949392919061112b565b60405180910390a1505050565b828054610d3f90611361565b90600052602060002090601f016020900481019282610d615760008555610da8565b82601f10610d7a57805160ff1916838001178555610da8565b82800160010185558215610da8579182015b82811115610da7578251825591602001919060010190610d8c565b5b509050610db59190610db9565b5090565b5b80821115610dd2576000816000905550600101610dba565b5090565b600081359050610de5816113fc565b92915050565b60008083601f840112610dfd57600080fd5b8235905067ffffffffffffffff811115610e1657600080fd5b602083019150836001820283011115610e2e57600080fd5b9250929050565b600081359050610e4481611413565b92915050565b600060208284031215610e5c57600080fd5b6000610e6a84828501610dd6565b91505092915050565b60008060408385031215610e8657600080fd5b6000610e9485828601610dd6565b9250506020610ea585828601610e35565b9150509250929050565b60008060008060408587031215610ec557600080fd5b600085013567ffffffffffffffff811115610edf57600080fd5b610eeb87828801610deb565b9450945050602085013567ffffffffffffffff811115610f0a57600080fd5b610f1687828801610deb565b925092505092959194509250565b600060208284031215610f3657600080fd5b6000610f4484828501610e35565b91505092915050565b6000610f5983836110c5565b905092915050565b610f6a816112e9565b82525050565b610f79816112ad565b82525050565b610f88816112ad565b82525050565b6000610f9982611257565b610fa3818561127a565b935083602082028501610fb585611247565b8060005b85811015610ff15784840389528151610fd28582610f4d565b9450610fdd8361126d565b925060208a01995050600181019050610fb9565b50829750879550505050505092915050565b600061100f838561129c565b935061101c83858461131f565b611025836113c2565b840190509392505050565b600061103b82611262565b611045818561128b565b935061105581856020860161132e565b61105e816113c2565b840191505092915050565b600061107482611262565b61107e818561129c565b935061108e81856020860161132e565b611097816113c2565b840191505092915050565b60006110af600b8361129c565b91506110ba826113d3565b602082019050919050565b600060608301600083015184820360008601526110e28282611030565b915050602083015184820360208601526110fc8282611030565b91505060408301516111116040860182610f70565b508091505092915050565b611125816112df565b82525050565b60006080820190506111406000830187610f7f565b61114d6020830186610f61565b61115a604083018561111c565b818103606083015261116c8184611069565b905095945050505050565b600060208201905081810360008301526111918184610f8e565b905092915050565b600060608201905081810360008301526111b4818789611003565b905081810360208301526111c9818587611003565b90506111d86040830184610f7f565b9695505050505050565b600060608201905081810360008301526111fc8186611069565b905081810360208301526112108185611069565b905061121f6040830184610f7f565b949350505050565b60006020820190508181036000830152611240816110a2565b9050919050565b6000819050602082019050919050565b600081519050919050565b600081519050919050565b6000602082019050919050565b600082825260208201905092915050565b600082825260208201905092915050565b600082825260208201905092915050565b60006112b8826112bf565b9050919050565b600073ffffffffffffffffffffffffffffffffffffffff82169050919050565b6000819050919050565b60006112f4826112fb565b9050919050565b60006113068261130d565b9050919050565b6000611318826112bf565b9050919050565b82818337600083830152505050565b60005b8381101561134c578082015181840152602081019050611331565b8381111561135b576000848401525b50505050565b6000600282049050600182168061137957607f821691505b6020821081141561138d5761138c611393565b5b50919050565b7f4e487b7100000000000000000000000000000000000000000000000000000000600052602260045260246000fd5b6000601f19601f8301169050919050565b7f74697020746f2073656c66000000000000000000000000000000000000000000600082015250565b611405816112ad565b811461141057600080fd5b50565b61141c816112df565b811461142757600080fd5b5056fea2646970667358221220fdc5be637b8b206f2311b10931ade726df4c25689d082242445b0afbf3fad6db64736f6c63430008040033",
  "linkReferences": {},
  "deployedLinkReferences": {}
}