{
  "_format": "hh-sol-artifact-1",
  "contractName": "Coinspace",
  "sourceName": "contracts/Coinspace.sol",
  "abi": [
    {
      "anonymous": false,
      "inputs": [
        {
          "indexed": false,
          "internalType": "uint256",
          "name": "index",
          "type": "uint256"
        },
        {
          "indexed": false,
          "internalType": "string",
          "name": "name",
          "type": "string"
        },
        {
          "indexed": false,
          "internalType": "address",
          "name": "submitter",
          "type": "address"
        }
      ],
      "name": "CoinSubmitted",
      "type": "event"
    },
    {
      "anonymous": false,
      "inputs": [
        {
          "indexed": false,
          "internalType": "address",
          "name": "from",
          "type": "address"
        },
        {
          "indexed": false,
          "internalType": "address",
          "name": "to",
          "type": "address"
        },
        {
          "indexed": false,
          "internalType": "uint256",
          "name": "amount",
          "type": "uint256"
        },
        {
          "indexed": false,
          "internalType": "string",
          "name": "forCoin",
          "type": "string"
        }
      ],
      "name": "TipSent",
      "type": "event"
    },
    {
      "inputs": [
        {
          "internalType": "string",
          "name": "_name",
          "type": "string"
        }
      ],
      "name": "getCoinByName",
      "outputs": [
        {
          "components": [
            {
              "internalType": "uint256",
              "name": "index",
              "type": "uint256"
            },
            {
              "internalType": "string",
              "name": "name",
              "type": "string"
            },
            {
              "internalType": "address",
              "name": "submitter",
              "type": "address"
            },
            {
              "internalType": "bool",
              "name": "isSubmitted",
              "type": "bool"
            }
          ],
          "internalType": "struct Coinspace.Coin",
          "name": "",
          "type": "tuple"
        }
      ],
      "stateMutability": "view",
      "type": "function"
    },
    {
      "inputs": [],
      "name": "getCoins",
      "outputs": [
        {
          "components": [
            {
              "internalType": "uint256",
              "name": "index",
              "type": "uint256"
            },
            {
              "internalType": "string",
              "name": "name",
              "type": "string"
            },
            {
              "internalType": "address",
              "name": "submitter",
              "type": "address"
            },
            {
              "internalType": "bool",
              "name": "isSubmitted",
              "type": "bool"
            }
          ],
          "internalType": "struct Coinspace.Coin[]",
          "name": "",
          "type": "tuple[]"
        }
      ],
      "stateMutability": "view",
      "type": "function"
    },
    {
      "inputs": [
        {
          "internalType": "address",
          "name": "_addr",
          "type": "address"
        }
      ],
      "name": "getCoinsByAddress",
      "outputs": [
        {
          "components": [
            {
              "internalType": "uint256",
              "name": "index",
              "type": "uint256"
            },
            {
              "internalType": "string",
              "name": "name",
              "type": "string"
            },
            {
              "internalType": "address",
              "name": "submitter",
              "type": "address"
            },
            {
              "internalType": "bool",
              "name": "isSubmitted",
              "type": "bool"
            }
          ],
          "internalType": "struct Coinspace.Coin[]",
          "name": "",
          "type": "tuple[]"
        }
      ],
      "stateMutability": "view",
      "type": "function"
    },
    {
      "inputs": [
        {
          "internalType": "string",
          "name": "_name",
          "type": "string"
        }
      ],
      "name": "submit",
      "outputs": [],
      "stateMutability": "nonpayable",
      "type": "function"
    },
    {
      "inputs": [
        {
          "internalType": "uint256",
          "name": "_index",
          "type": "uint256"
        }
      ],
      "name": "tipByIndex",
      "outputs": [],
      "stateMutability": "payable",
      "type": "function"
    },
    {
      "inputs": [
        {
          "internalType": "string",
          "name": "_name",
          "type": "string"
        }
      ],
      "name": "tipByName",
      "outputs": [],
      "stateMutability": "payable",
      "type": "function"
    }
  ],
  "bytecode": "0x608060405234801561001057600080fd5b50611ec1806100206000396000f3fe6080604052600436106100555760003560e01c80630948a33d1461005a57806313c390ef14610076578063469567c7146100a15780634ecd4bc1146100de578063811ddf0d1461011b578063d99a8dc314610137575b600080fd5b610074600480360381019061006f9190611572565b610160565b005b34801561008257600080fd5b5061008b6103e4565b604051610098919061195e565b60405180910390f35b3480156100ad57600080fd5b506100c860048036038101906100c39190611572565b610550565b6040516100d59190611a1b565b60405180910390f35b3480156100ea57600080fd5b5061010560048036038101906101009190611504565b6106a0565b604051610112919061195e565b60405180910390f35b610135600480360381019061013091906115b3565b61084b565b005b34801561014357600080fd5b5061015e6004803603810190610159919061152d565b610b23565b005b600061016b82610f04565b905060028160405161017d91906118e6565b908152602001604051809103902060020160149054906101000a900460ff166101db576040517f08c379a00000000000000000000000000000000000000000000000000000000081526004016101d29061199b565b60405180910390fd5b60006002826040516101ed91906118e6565b908152602001604051809103902060020160009054906101000a900473ffffffffffffffffffffffffffffffffffffffff1690506102413373ffffffffffffffffffffffffffffffffffffffff16316111c6565b61024a346111c6565b8073ffffffffffffffffffffffffffffffffffffffff163373ffffffffffffffffffffffffffffffffffffffff1614156102b9576040517f08c379a00000000000000000000000000000000000000000000000000000000081526004016102b0906119fb565b60405180910390fd5b3373ffffffffffffffffffffffffffffffffffffffff16313410610312576040517f08c379a0000000000000000000000000000000000000000000000000000000008152600401610309906119bb565b60405180910390fd5b6000808273ffffffffffffffffffffffffffffffffffffffff163373ffffffffffffffffffffffffffffffffffffffff1631604051610350906118fd565b60006040518083038185875af1925050503d806000811461038d576040519150601f19603f3d011682016040523d82523d6000602084013e610392565b606091505b50915091506103a08261125f565b7f47699a4a144a6ecb85d9f1d3f809cbb382de4ad771c46d73422dd419cebec465338434876040516103d59493929190611912565b60405180910390a15050505050565b60606001805480602002602001604051908101604052809291908181526020016000905b8282101561054757838290600052602060002090600302016040518060800160405290816000820154815260200160018201805461044590611c6c565b80601f016020809104026020016040519081016040528092919081815260200182805461047190611c6c565b80156104be5780601f10610493576101008083540402835291602001916104be565b820191906000526020600020905b8154815290600101906020018083116104a157829003601f168201915b505050505081526020016002820160009054906101000a900473ffffffffffffffffffffffffffffffffffffffff1673ffffffffffffffffffffffffffffffffffffffff1673ffffffffffffffffffffffffffffffffffffffff1681526020016002820160149054906101000a900460ff16151515158152505081526020019060010190610408565b50505050905090565b610558611345565b61056182610f04565b915060028260405161057391906118e6565b9081526020016040518091039020604051806080016040529081600082015481526020016001820180546105a690611c6c565b80601f01602080910402602001604051908101604052809291908181526020018280546105d290611c6c565b801561061f5780601f106105f45761010080835404028352916020019161061f565b820191906000526020600020905b81548152906001019060200180831161060257829003601f168201915b505050505081526020016002820160009054906101000a900473ffffffffffffffffffffffffffffffffffffffff1673ffffffffffffffffffffffffffffffffffffffff1673ffffffffffffffffffffffffffffffffffffffff1681526020016002820160149054906101000a900460ff1615151515815250509050919050565b6060600360008373ffffffffffffffffffffffffffffffffffffffff1673ffffffffffffffffffffffffffffffffffffffff168152602001908152602001600020805480602002602001604051908101604052809291908181526020016000905b8282101561084057838290600052602060002090600302016040518060800160405290816000820154815260200160018201805461073e90611c6c565b80601f016020809104026020016040519081016040528092919081815260200182805461076a90611c6c565b80156107b75780601f1061078c576101008083540402835291602001916107b7565b820191906000526020600020905b81548152906001019060200180831161079a57829003601f168201915b505050505081526020016002820160009054906101000a900473ffffffffffffffffffffffffffffffffffffffff1673ffffffffffffffffffffffffffffffffffffffff1673ffffffffffffffffffffffffffffffffffffffff1681526020016002820160149054906101000a900460ff16151515158152505081526020019060010190610701565b505050509050919050565b60018181548110610885577f4e487b7100000000000000000000000000000000000000000000000000000000600052603260045260246000fd5b906000526020600020906003020160020160149054906101000a900460ff166108e3576040517f08c379a00000000000000000000000000000000000000000000000000000000081526004016108da9061199b565b60405180910390fd5b60006001828154811061091f577f4e487b7100000000000000000000000000000000000000000000000000000000600052603260045260246000fd5b906000526020600020906003020160020160009054906101000a900473ffffffffffffffffffffffffffffffffffffffff16905060006001838154811061098f577f4e487b7100000000000000000000000000000000000000000000000000000000600052603260045260246000fd5b906000526020600020906003020160010180546109ab90611c6c565b80601f01602080910402602001604051908101604052809291908181526020018280546109d790611c6c565b8015610a245780601f106109f957610100808354040283529160200191610a24565b820191906000526020600020905b815481529060010190602001808311610a0757829003601f168201915b505050505090508173ffffffffffffffffffffffffffffffffffffffff163373ffffffffffffffffffffffffffffffffffffffff161415610a9a576040517f08c379a0000000000000000000000000000000000000000000000000000000008152600401610a91906119fb565b60405180910390fd5b8173ffffffffffffffffffffffffffffffffffffffff166108fc349081150290604051600060405180830381858888f19350505050158015610ae0573d6000803e3d6000fd5b507f47699a4a144a6ecb85d9f1d3f809cbb382de4ad771c46d73422dd419cebec46533833484604051610b169493929190611912565b60405180910390a1505050565b6000610b7283838080601f016020809104026020016040519081016040528093929190818152602001838380828437600081840152601f19601f82011690508083019250505050505050610f04565b9050600281604051610b8491906118e6565b908152602001604051809103902060020160149054906101000a900460ff1615610be3576040517f08c379a0000000000000000000000000000000000000000000000000000000008152600401610bda906119db565b60405180910390fd5b610beb611345565b610bf560006112f8565b81600001818152505081816020018190525033816040019073ffffffffffffffffffffffffffffffffffffffff16908173ffffffffffffffffffffffffffffffffffffffff1681525050600181606001901515908115158152505080600283604051610c6191906118e6565b9081526020016040518091039020600082015181600001556020820151816001019080519060200190610c95929190611385565b5060408201518160020160006101000a81548173ffffffffffffffffffffffffffffffffffffffff021916908373ffffffffffffffffffffffffffffffffffffffff16021790555060608201518160020160146101000a81548160ff0219169083151502179055509050506001819080600181540180825580915050600190039060005260206000209060030201600090919091909150600082015181600001556020820151816001019080519060200190610d52929190611385565b5060408201518160020160006101000a81548173ffffffffffffffffffffffffffffffffffffffff021916908373ffffffffffffffffffffffffffffffffffffffff16021790555060608201518160020160146101000a81548160ff0219169083151502179055505050600360003373ffffffffffffffffffffffffffffffffffffffff1673ffffffffffffffffffffffffffffffffffffffff168152602001908152602001600020819080600181540180825580915050600190039060005260206000209060030201600090919091909150600082015181600001556020820151816001019080519060200190610e4b929190611385565b5060408201518160020160006101000a81548173ffffffffffffffffffffffffffffffffffffffff021916908373ffffffffffffffffffffffffffffffffffffffff16021790555060608201518160020160146101000a81548160ff02191690831515021790555050507f1c40aeaab890ccc0e1c46ae1fe94d35cadc648a84b8b2cc440fe961001f2889081600001518333604051610eec93929190611a58565b60405180910390a1610efe6000611306565b50505050565b606060008290506000815167ffffffffffffffff811115610f4e577f4e487b7100000000000000000000000000000000000000000000000000000000600052604160045260246000fd5b6040519080825280601f01601f191660200182016040528015610f805781602001600182028036833780820191505090505b50905060005b82518110156111bb576041838281518110610fca577f4e487b7100000000000000000000000000000000000000000000000000000000600052603260045260246000fd5b602001015160f81c60f81b60f81c60ff16101580156110335750605a83828151811061101f577f4e487b7100000000000000000000000000000000000000000000000000000000600052603260045260246000fd5b602001015160f81c60f81b60f81c60ff1611155b156110fb576020838281518110611073577f4e487b7100000000000000000000000000000000000000000000000000000000600052603260045260246000fd5b602001015160f81c60f81b60f81c61108b9190611b68565b60f81b8282815181106110c7577f4e487b7100000000000000000000000000000000000000000000000000000000600052603260045260246000fd5b60200101907effffffffffffffffffffffffffffffffffffffffffffffffffffffffffffff1916908160001a9053506111a8565b828181518110611134577f4e487b7100000000000000000000000000000000000000000000000000000000600052603260045260246000fd5b602001015160f81c60f81b828281518110611178577f4e487b7100000000000000000000000000000000000000000000000000000000600052603260045260246000fd5b60200101907effffffffffffffffffffffffffffffffffffffffffffffffffffffffffffff1916908160001a9053505b80806111b390611ccf565b915050610f86565b508092505050919050565b61125c816040516024016111da9190611a3d565b6040516020818303038152906040527ff5b1bba9000000000000000000000000000000000000000000000000000000007bffffffffffffffffffffffffffffffffffffffffffffffffffffffff19166020820180517bffffffffffffffffffffffffffffffffffffffffffffffffffffffff838183161783525050505061131c565b50565b6112f5816040516024016112739190611980565b6040516020818303038152906040527f32458eed000000000000000000000000000000000000000000000000000000007bffffffffffffffffffffffffffffffffffffffffffffffffffffffff19166020820180517bffffffffffffffffffffffffffffffffffffffffffffffffffffffff838183161783525050505061131c565b50565b600081600001549050919050565b6001816000016000828254019250508190555050565b60008151905060006a636f6e736f6c652e6c6f679050602083016000808483855afa5050505050565b60405180608001604052806000815260200160608152602001600073ffffffffffffffffffffffffffffffffffffffff1681526020016000151581525090565b82805461139190611c6c565b90600052602060002090601f0160209004810192826113b357600085556113fa565b82601f106113cc57805160ff19168380011785556113fa565b828001600101855582156113fa579182015b828111156113f95782518255916020019190600101906113de565b5b509050611407919061140b565b5090565b5b8082111561142457600081600090555060010161140c565b5090565b600061143b61143684611abb565b611a96565b90508281526020810184848401111561145357600080fd5b61145e848285611c2a565b509392505050565b60008135905061147581611e5d565b92915050565b60008083601f84011261148d57600080fd5b8235905067ffffffffffffffff8111156114a657600080fd5b6020830191508360018202830111156114be57600080fd5b9250929050565b600082601f8301126114d657600080fd5b81356114e6848260208601611428565b91505092915050565b6000813590506114fe81611e74565b92915050565b60006020828403121561151657600080fd5b600061152484828501611466565b91505092915050565b6000806020838503121561154057600080fd5b600083013567ffffffffffffffff81111561155a57600080fd5b6115668582860161147b565b92509250509250929050565b60006020828403121561158457600080fd5b600082013567ffffffffffffffff81111561159e57600080fd5b6115aa848285016114c5565b91505092915050565b6000602082840312156115c557600080fd5b60006115d3848285016114ef565b91505092915050565b60006115e88383611802565b905092915050565b6115f981611bf4565b82525050565b61160881611b9f565b82525050565b61161781611b9f565b82525050565b600061162882611afc565b6116328185611b1f565b93508360208202850161164485611aec565b8060005b85811015611680578484038952815161166185826115dc565b945061166c83611b12565b925060208a01995050600181019050611648565b50829750879550505050505092915050565b61169b81611bb1565b82525050565b6116aa81611bb1565b82525050565b60006116bb82611b07565b6116c58185611b3b565b93506116d5818560208601611c39565b6116de81611da5565b840191505092915050565b60006116f482611b07565b6116fe8185611b4c565b935061170e818560208601611c39565b61171781611da5565b840191505092915050565b600061172d82611b07565b6117378185611b5d565b9350611747818560208601611c39565b80840191505092915050565b6000611760601283611b4c565b915061176b82611db6565b602082019050919050565b6000611783601483611b4c565b915061178e82611ddf565b602082019050919050565b60006117a6600083611b30565b91506117b182611e08565b600082019050919050565b60006117c9601683611b4c565b91506117d482611e0b565b602082019050919050565b60006117ec600b83611b4c565b91506117f782611e34565b602082019050919050565b600060808301600083015161181a60008601826118c8565b506020830151848203602086015261183282826116b0565b915050604083015161184760408601826115ff565b50606083015161185a6060860182611692565b508091505092915050565b600060808301600083015161187d60008601826118c8565b506020830151848203602086015261189582826116b0565b91505060408301516118aa60408601826115ff565b5060608301516118bd6060860182611692565b508091505092915050565b6118d181611bdd565b82525050565b6118e081611bdd565b82525050565b60006118f28284611722565b915081905092915050565b600061190882611799565b9150819050919050565b6000608082019050611927600083018761160e565b61193460208301866115f0565b61194160408301856118d7565b818103606083015261195381846116e9565b905095945050505050565b60006020820190508181036000830152611978818461161d565b905092915050565b600060208201905061199560008301846116a1565b92915050565b600060208201905081810360008301526119b481611753565b9050919050565b600060208201905081810360008301526119d481611776565b9050919050565b600060208201905081810360008301526119f4816117bc565b9050919050565b60006020820190508181036000830152611a14816117df565b9050919050565b60006020820190508181036000830152611a358184611865565b905092915050565b6000602082019050611a5260008301846118d7565b92915050565b6000606082019050611a6d60008301866118d7565b8181036020830152611a7f81856116e9565b9050611a8e604083018461160e565b949350505050565b6000611aa0611ab1565b9050611aac8282611c9e565b919050565b6000604051905090565b600067ffffffffffffffff821115611ad657611ad5611d76565b5b611adf82611da5565b9050602081019050919050565b6000819050602082019050919050565b600081519050919050565b600081519050919050565b6000602082019050919050565b600082825260208201905092915050565b600081905092915050565b600082825260208201905092915050565b600082825260208201905092915050565b600081905092915050565b6000611b7382611be7565b9150611b7e83611be7565b92508260ff03821115611b9457611b93611d18565b5b828201905092915050565b6000611baa82611bbd565b9050919050565b60008115159050919050565b600073ffffffffffffffffffffffffffffffffffffffff82169050919050565b6000819050919050565b600060ff82169050919050565b6000611bff82611c06565b9050919050565b6000611c1182611c18565b9050919050565b6000611c2382611bbd565b9050919050565b82818337600083830152505050565b60005b83811015611c57578082015181840152602081019050611c3c565b83811115611c66576000848401525b50505050565b60006002820490506001821680611c8457607f821691505b60208210811415611c9857611c97611d47565b5b50919050565b611ca782611da5565b810181811067ffffffffffffffff82111715611cc657611cc5611d76565b5b80604052505050565b6000611cda82611bdd565b91507fffffffffffffffffffffffffffffffffffffffffffffffffffffffffffffffff821415611d0d57611d0c611d18565b5b600182019050919050565b7f4e487b7100000000000000000000000000000000000000000000000000000000600052601160045260246000fd5b7f4e487b7100000000000000000000000000000000000000000000000000000000600052602260045260246000fd5b7f4e487b7100000000000000000000000000000000000000000000000000000000600052604160045260246000fd5b6000601f19601f8301169050919050565b7f636f696e206e6f74207375626d69747465640000000000000000000000000000600082015250565b7f696e73756666696369656e742062616c616e6365000000000000000000000000600082015250565b50565b7f436f696e20616c7265616479207375626d697474656400000000000000000000600082015250565b7f74697020746f2073656c66000000000000000000000000000000000000000000600082015250565b611e6681611b9f565b8114611e7157600080fd5b50565b611e7d81611bdd565b8114611e8857600080fd5b5056fea26469706673582212205238cdf5c21ebf75cba5c1feeaa4b76f801cdac4aff3c73afc0442c253c11b7b64736f6c63430008040033",
  "linkReferences": {},
  "deployedLinkReferences": {}
}